{
  "contractName": "Ebay",
  "abi": [
    {
      "inputs": [
        {
          "internalType": "string",
          "name": "_name",
          "type": "string"
        },
        {
          "internalType": "string",
          "name": "_description",
          "type": "string"
        },
        {
          "internalType": "uint256",
          "name": "_min",
          "type": "uint256"
        },
        {
          "internalType": "uint256",
          "name": "_duration",
          "type": "uint256"
        }
      ],
      "name": "createAuction",
      "outputs": [],
      "stateMutability": "nonpayable",
      "type": "function"
    },
    {
      "inputs": [
        {
          "internalType": "uint256",
          "name": "_auctionId",
          "type": "uint256"
        }
      ],
      "name": "createOffer",
      "outputs": [],
      "stateMutability": "payable",
      "type": "function",
      "payable": true
    },
    {
      "inputs": [
        {
          "internalType": "uint256",
          "name": "_auctionId",
          "type": "uint256"
        }
      ],
      "name": "trade",
      "outputs": [],
      "stateMutability": "nonpayable",
      "type": "function"
    },
    {
      "inputs": [],
      "name": "getAuctions",
      "outputs": [
        {
          "components": [
            {
              "internalType": "uint256",
              "name": "id",
              "type": "uint256"
            },
            {
              "internalType": "address payable",
              "name": "seller",
              "type": "address"
            },
            {
              "internalType": "string",
              "name": "name",
              "type": "string"
            },
            {
              "internalType": "string",
              "name": "description",
              "type": "string"
            },
            {
              "internalType": "uint256",
              "name": "min",
              "type": "uint256"
            },
            {
              "internalType": "uint256",
              "name": "end",
              "type": "uint256"
            },
            {
              "internalType": "uint256",
              "name": "bestOfferId",
              "type": "uint256"
            },
            {
              "internalType": "uint256[]",
              "name": "offerIds",
              "type": "uint256[]"
            }
          ],
          "internalType": "struct Ebay.Auction[]",
          "name": "",
          "type": "tuple[]"
        }
      ],
      "stateMutability": "view",
      "type": "function",
      "constant": true
    },
    {
      "inputs": [
        {
          "internalType": "address",
          "name": "_user",
          "type": "address"
        }
      ],
      "name": "getUserAuctions",
      "outputs": [
        {
          "components": [
            {
              "internalType": "uint256",
              "name": "id",
              "type": "uint256"
            },
            {
              "internalType": "address payable",
              "name": "seller",
              "type": "address"
            },
            {
              "internalType": "string",
              "name": "name",
              "type": "string"
            },
            {
              "internalType": "string",
              "name": "description",
              "type": "string"
            },
            {
              "internalType": "uint256",
              "name": "min",
              "type": "uint256"
            },
            {
              "internalType": "uint256",
              "name": "end",
              "type": "uint256"
            },
            {
              "internalType": "uint256",
              "name": "bestOfferId",
              "type": "uint256"
            },
            {
              "internalType": "uint256[]",
              "name": "offerIds",
              "type": "uint256[]"
            }
          ],
          "internalType": "struct Ebay.Auction[]",
          "name": "",
          "type": "tuple[]"
        }
      ],
      "stateMutability": "view",
      "type": "function",
      "constant": true
    },
    {
      "inputs": [
        {
          "internalType": "address",
          "name": "_user",
          "type": "address"
        }
      ],
      "name": "getUserOffers",
      "outputs": [
        {
          "components": [
            {
              "internalType": "uint256",
              "name": "id",
              "type": "uint256"
            },
            {
              "internalType": "uint256",
              "name": "auctionId",
              "type": "uint256"
            },
            {
              "internalType": "address payable",
              "name": "buyer",
              "type": "address"
            },
            {
              "internalType": "uint256",
              "name": "price",
              "type": "uint256"
            }
          ],
          "internalType": "struct Ebay.Offer[]",
          "name": "",
          "type": "tuple[]"
        }
      ],
      "stateMutability": "view",
      "type": "function",
      "constant": true
    }
  ],
  "bytecode": "0x60806040526001600455600160055534801561001a57600080fd5b50611d9d8061002a6000396000f3fe6080604052600436106100555760003560e01c806361e2db551461005a578063661d2c2c14610083578063a269993d146100c0578063d7c06919146100dc578063df1dd82614610107578063ff3ad0b414610130575b600080fd5b34801561006657600080fd5b50610081600480360381019061007c919061132a565b61016d565b005b34801561008f57600080fd5b506100aa60048036038101906100a591906112fd565b61049c565b6040516100b791906117d1565b60405180910390f35b6100da60048036038101906100d591906113d1565b61063d565b005b3480156100e857600080fd5b506100f16108cf565b6040516100fe91906117af565b60405180910390f35b34801561011357600080fd5b5061012e600480360381019061012991906113d1565b610bb1565b005b34801561013c57600080fd5b50610157600480360381019061015291906112fd565b610dcd565b60405161016491906117af565b60405180910390f35b600082116101b0576040517f08c379a00000000000000000000000000000000000000000000000000000000081526004016101a790611893565b60405180910390fd5b62015180811180156101c45750620d2f0081105b610203576040517f08c379a00000000000000000000000000000000000000000000000000000000081526004016101fa90611873565b60405180910390fd5b60008067ffffffffffffffff81111561021f5761021e611b9e565b5b60405190808252806020026020018201604052801561024d5781602001602082028036833780820191505090505b50905060405180610100016040528060045481526020013373ffffffffffffffffffffffffffffffffffffffff16815260200188888080601f016020809104026020016040519081016040528093929190818152602001838380828437600081840152601f19601f82011690508083019250505050505050815260200186868080601f016020809104026020016040519081016040528093929190818152602001838380828437600081840152601f19601f8201169050808301925050505050505081526020018481526020018342610326919061198b565b8152602001600081526020018281525060008060045481526020019081526020016000206000820151816000015560208201518160010160006101000a81548173ffffffffffffffffffffffffffffffffffffffff021916908373ffffffffffffffffffffffffffffffffffffffff16021790555060408201518160020190805190602001906103b79291906110f4565b5060608201518160030190805190602001906103d49291906110f4565b506080820151816004015560a0820151816005015560c0820151816006015560e082015181600701908051906020019061040f92919061117a565b50905050600260003373ffffffffffffffffffffffffffffffffffffffff1673ffffffffffffffffffffffffffffffffffffffff16815260200190815260200160002060045490806001815401808255809150506001900390600052602060002001600090919091909150556004600081548092919061048e90611ac8565b919050555050505050505050565b60606000600360008473ffffffffffffffffffffffffffffffffffffffff1673ffffffffffffffffffffffffffffffffffffffff16815260200190815260200160002090506000818054905067ffffffffffffffff81111561050157610500611b9e565b5b60405190808252806020026020018201604052801561053a57816020015b6105276111c7565b81526020019060019003908161051f5790505b50905060005b828054905081101561063257600083828154811061056157610560611b6f565b5b906000526020600020015490506001600082815260200190815260200160002060405180608001604052908160008201548152602001600182015481526020016002820160009054906101000a900473ffffffffffffffffffffffffffffffffffffffff1673ffffffffffffffffffffffffffffffffffffffff1673ffffffffffffffffffffffffffffffffffffffff16815260200160038201548152505083838151811061061357610612611b6f565b5b602002602001018190525050808061062a90611ac8565b915050610540565b508092505050919050565b8060008111801561064f575060045481105b61068e576040517f08c379a000000000000000000000000000000000000000000000000000000000815260040161068590611833565b60405180910390fd5b6000806000848152602001908152602001600020905060006001600083600601548152602001908152602001600020905081600501544210610705576040517f08c379a00000000000000000000000000000000000000000000000000000000081526004016106fc90611853565b60405180910390fd5b8160040154341015801561071c5750806003015434115b61075b576040517f08c379a000000000000000000000000000000000000000000000000000000000815260040161075290611813565b60405180910390fd5b6005548260060181905550816007016005549080600181540180825580915050600190039060005260206000200160009091909190915055604051806080016040528060055481526020018581526020013373ffffffffffffffffffffffffffffffffffffffff16815260200134815250600160006005548152602001908152602001600020600082015181600001556020820151816001015560408201518160020160006101000a81548173ffffffffffffffffffffffffffffffffffffffff021916908373ffffffffffffffffffffffffffffffffffffffff16021790555060608201518160030155905050600360003373ffffffffffffffffffffffffffffffffffffffff1673ffffffffffffffffffffffffffffffffffffffff1681526020019081526020016000206005549080600181540180825580915050600190039060005260206000200160009091909190915055600560008154809291906108c490611ac8565b919050555050505050565b6060600060016004546108e291906119e1565b67ffffffffffffffff8111156108fb576108fa611b9e565b5b60405190808252806020026020018201604052801561093457816020015b610921611205565b8152602001906001900390816109195790505b5090506000600190505b600160045461094d919061198b565b811015610ba95760008082815260200190815260200160002060405180610100016040529081600082015481526020016001820160009054906101000a900473ffffffffffffffffffffffffffffffffffffffff1673ffffffffffffffffffffffffffffffffffffffff1673ffffffffffffffffffffffffffffffffffffffff1681526020016002820180546109e290611a96565b80601f0160208091040260200160405190810160405280929190818152602001828054610a0e90611a96565b8015610a5b5780601f10610a3057610100808354040283529160200191610a5b565b820191906000526020600020905b815481529060010190602001808311610a3e57829003601f168201915b50505050508152602001600382018054610a7490611a96565b80601f0160208091040260200160405190810160405280929190818152602001828054610aa090611a96565b8015610aed5780601f10610ac257610100808354040283529160200191610aed565b820191906000526020600020905b815481529060010190602001808311610ad057829003601f168201915b5050505050815260200160048201548152602001600582015481526020016006820154815260200160078201805480602002602001604051908101604052809291908181526020018280548015610b6357602002820191906000526020600020905b815481526020019060010190808311610b4f575b50505050508152505082600183610b7a91906119e1565b81518110610b8b57610b8a611b6f565b5b60200260200101819052508080610ba190611ac8565b91505061093e565b508091505090565b80600081118015610bc3575060045481105b610c02576040517f08c379a0000000000000000000000000000000000000000000000000000000008152600401610bf990611833565b60405180910390fd5b6000806000848152602001908152602001600020905060006001600083600601548152602001908152602001600020905081600501544211610c79576040517f08c379a0000000000000000000000000000000000000000000000000000000008152600401610c70906117f3565b60405180910390fd5b60005b8260070180549050811015610d57576000836007018281548110610ca357610ca2611b6f565b5b9060005260206000200154905083600601548114610d435760006001600083815260200190815260200160002090508060020160009054906101000a900473ffffffffffffffffffffffffffffffffffffffff1673ffffffffffffffffffffffffffffffffffffffff166108fc82600301549081150290604051600060405180830381858888f19350505050158015610d40573d6000803e3d6000fd5b50505b508080610d4f90611ac8565b915050610c7c565b508160010160009054906101000a900473ffffffffffffffffffffffffffffffffffffffff1673ffffffffffffffffffffffffffffffffffffffff166108fc82600301549081150290604051600060405180830381858888f19350505050158015610dc6573d6000803e3d6000fd5b5050505050565b60606000600260008473ffffffffffffffffffffffffffffffffffffffff1673ffffffffffffffffffffffffffffffffffffffff16815260200190815260200160002090506000818054905067ffffffffffffffff811115610e3257610e31611b9e565b5b604051908082528060200260200182016040528015610e6b57816020015b610e58611205565b815260200190600190039081610e505790505b50905060005b82805490508110156110e9576000838281548110610e9257610e91611b6f565b5b9060005260206000200154905060008082815260200190815260200160002060405180610100016040529081600082015481526020016001820160009054906101000a900473ffffffffffffffffffffffffffffffffffffffff1673ffffffffffffffffffffffffffffffffffffffff1673ffffffffffffffffffffffffffffffffffffffff168152602001600282018054610f2d90611a96565b80601f0160208091040260200160405190810160405280929190818152602001828054610f5990611a96565b8015610fa65780601f10610f7b57610100808354040283529160200191610fa6565b820191906000526020600020905b815481529060010190602001808311610f8957829003601f168201915b50505050508152602001600382018054610fbf90611a96565b80601f0160208091040260200160405190810160405280929190818152602001828054610feb90611a96565b80156110385780601f1061100d57610100808354040283529160200191611038565b820191906000526020600020905b81548152906001019060200180831161101b57829003601f168201915b50505050508152602001600482015481526020016005820154815260200160068201548152602001600782018054806020026020016040519081016040528092919081815260200182805480156110ae57602002820191906000526020600020905b81548152602001906001019080831161109a575b5050505050815250508383815181106110ca576110c9611b6f565b5b60200260200101819052505080806110e190611ac8565b915050610e71565b508092505050919050565b82805461110090611a96565b90600052602060002090601f0160209004810192826111225760008555611169565b82601f1061113b57805160ff1916838001178555611169565b82800160010185558215611169579182015b8281111561116857825182559160200191906001019061114d565b5b5090506111769190611260565b5090565b8280548282559060005260206000209081019282156111b6579160200282015b828111156111b557825182559160200191906001019061119a565b5b5090506111c39190611260565b5090565b60405180608001604052806000815260200160008152602001600073ffffffffffffffffffffffffffffffffffffffff168152602001600081525090565b60405180610100016040528060008152602001600073ffffffffffffffffffffffffffffffffffffffff1681526020016060815260200160608152602001600081526020016000815260200160008152602001606081525090565b5b80821115611279576000816000905550600101611261565b5090565b60008135905061128c81611d39565b92915050565b60008083601f8401126112a8576112a7611bd2565b5b8235905067ffffffffffffffff8111156112c5576112c4611bcd565b5b6020830191508360018202830111156112e1576112e0611bd7565b5b9250929050565b6000813590506112f781611d50565b92915050565b60006020828403121561131357611312611be1565b5b60006113218482850161127d565b91505092915050565b6000806000806000806080878903121561134757611346611be1565b5b600087013567ffffffffffffffff81111561136557611364611bdc565b5b61137189828a01611292565b9650965050602087013567ffffffffffffffff81111561139457611393611bdc565b5b6113a089828a01611292565b945094505060406113b389828a016112e8565b92505060606113c489828a016112e8565b9150509295509295509295565b6000602082840312156113e7576113e6611be1565b5b60006113f5848285016112e8565b91505092915050565b600061140a838361168d565b905092915050565b600061141e838361174b565b60808301905092915050565b600061143683836117a0565b60208301905092915050565b61144b81611a27565b82525050565b600061145c826118e3565b6114668185611936565b935083602082028501611478856118b3565b8060005b858110156114b4578484038952815161149585826113fe565b94506114a08361190f565b925060208a0199505060018101905061147c565b50829750879550505050505092915050565b60006114d1826118ee565b6114db8185611947565b93506114e6836118c3565b8060005b838110156115175781516114fe8882611412565b97506115098361191c565b9250506001810190506114ea565b5085935050505092915050565b600061152f826118f9565b6115398185611958565b9350611544836118d3565b8060005b8381101561157557815161155c888261142a565b975061156783611929565b925050600181019050611548565b5085935050505092915050565b600061158d82611904565b6115978185611969565b93506115a7818560208601611a63565b6115b081611be6565b840191505092915050565b60006115c860178361197a565b91506115d382611bf7565b602082019050919050565b60006115eb602f8361197a565b91506115f682611c20565b604082019050919050565b600061160e60168361197a565b915061161982611c6f565b602082019050919050565b600061163160138361197a565b915061163c82611c98565b602082019050919050565b600061165460308361197a565b915061165f82611cc1565b604082019050919050565b600061167760108361197a565b915061168282611d10565b602082019050919050565b6000610100830160008301516116a660008601826117a0565b5060208301516116b96020860182611442565b50604083015184820360408601526116d18282611582565b915050606083015184820360608601526116eb8282611582565b915050608083015161170060808601826117a0565b5060a083015161171360a08601826117a0565b5060c083015161172660c08601826117a0565b5060e083015184820360e086015261173e8282611524565b9150508091505092915050565b60808201600082015161176160008501826117a0565b50602082015161177460208501826117a0565b5060408201516117876040850182611442565b50606082015161179a60608501826117a0565b50505050565b6117a981611a59565b82525050565b600060208201905081810360008301526117c98184611451565b905092915050565b600060208201905081810360008301526117eb81846114c6565b905092915050565b6000602082019050818103600083015261180c816115bb565b9050919050565b6000602082019050818103600083015261182c816115de565b9050919050565b6000602082019050818103600083015261184c81611601565b9050919050565b6000602082019050818103600083015261186c81611624565b9050919050565b6000602082019050818103600083015261188c81611647565b9050919050565b600060208201905081810360008301526118ac8161166a565b9050919050565b6000819050602082019050919050565b6000819050602082019050919050565b6000819050602082019050919050565b600081519050919050565b600081519050919050565b600081519050919050565b600081519050919050565b6000602082019050919050565b6000602082019050919050565b6000602082019050919050565b600082825260208201905092915050565b600082825260208201905092915050565b600082825260208201905092915050565b600082825260208201905092915050565b600082825260208201905092915050565b600061199682611a59565b91506119a183611a59565b9250827fffffffffffffffffffffffffffffffffffffffffffffffffffffffffffffffff038211156119d6576119d5611b11565b5b828201905092915050565b60006119ec82611a59565b91506119f783611a59565b925082821015611a0a57611a09611b11565b5b828203905092915050565b6000611a2082611a39565b9050919050565b6000611a3282611a39565b9050919050565b600073ffffffffffffffffffffffffffffffffffffffff82169050919050565b6000819050919050565b60005b83811015611a81578082015181840152602081019050611a66565b83811115611a90576000848401525b50505050565b60006002820490506001821680611aae57607f821691505b60208210811415611ac257611ac1611b40565b5b50919050565b6000611ad382611a59565b91507fffffffffffffffffffffffffffffffffffffffffffffffffffffffffffffffff821415611b0657611b05611b11565b5b600182019050919050565b7f4e487b7100000000000000000000000000000000000000000000000000000000600052601160045260246000fd5b7f4e487b7100000000000000000000000000000000000000000000000000000000600052602260045260246000fd5b7f4e487b7100000000000000000000000000000000000000000000000000000000600052603260045260246000fd5b7f4e487b7100000000000000000000000000000000000000000000000000000000600052604160045260246000fd5b600080fd5b600080fd5b600080fd5b600080fd5b600080fd5b6000601f19601f8301169050919050565b7f41756374696f6e206973207374696c6c20616374697665000000000000000000600082015250565b7f6d73672e76616c7565206d757374206265207375706572696f7220746f206d6960008201527f6e20616e6420626573744f666665720000000000000000000000000000000000602082015250565b7f41756374696f6e20646f6573206e6f7420657869737400000000000000000000600082015250565b7f41756374696f6e20686173206578706972656400000000000000000000000000600082015250565b7f5f6475726174696f6e206d75737420626520636f6d707269736564206265747760008201527f65656e203120746f203130206461797300000000000000000000000000000000602082015250565b7f5f6d696e206d757374206265203e203000000000000000000000000000000000600082015250565b611d4281611a15565b8114611d4d57600080fd5b50565b611d5981611a59565b8114611d6457600080fd5b5056fea2646970667358221220f5459a1d683dfc750a218f9212772680a5bfaba52baac7ac8a569eb60a0ba8d864736f6c63430008050033",
  "immutableReferences": {},
  "source": "pragma solidity ^0.8.5;\r\n\r\n\r\ncontract Ebay {\r\n    //1. Allow seller to create auctions\r\n    //2. Allow buyers make offer for an auctions\r\n    //3. Allow seller and buyers to trade at the end of an auction\r\n    //4. Create some getter functions for auctions and offers\r\n    \r\n    struct Auction {\r\n        uint id;\r\n        address payable seller;\r\n        string name;\r\n        string description;\r\n        uint min;\r\n        uint end;\r\n        uint bestOfferId;\r\n        uint[] offerIds;\r\n    }\r\n    \r\n    struct Offer {\r\n        uint id;\r\n        uint auctionId;\r\n        address payable buyer;\r\n        uint price;\r\n    }\r\n    mapping(uint => Auction) private auctions;\r\n    mapping(uint => Offer) private offers;\r\n    mapping(address => uint[]) private userAuctions;\r\n    mapping(address => uint[]) private userOffers;\r\n    uint private nextAuctionId = 1;\r\n    uint private nextOfferId = 1;\r\n    \r\n    function createAuction(\r\n        string calldata _name,\r\n        string calldata _description,\r\n        uint _min,\r\n        uint _duration)\r\n        external {\r\n        require(_min > 0, '_min must be > 0');\r\n        require(_duration > 86400 && _duration < 864000, '_duration must be comprised between 1 to 10 days');\r\n        uint[] memory offerIds = new uint[](0);\r\n        auctions[nextAuctionId] = Auction(\r\n            nextAuctionId,\r\n           payable(msg.sender) ,\r\n            _name,\r\n            _description,\r\n            _min,\r\n            block.timestamp + _duration,\r\n            0,\r\n            offerIds\r\n        );\r\n        userAuctions[msg.sender].push(nextAuctionId);\r\n        nextAuctionId++;\r\n    }\r\n    \r\n    function createOffer(uint _auctionId) external payable auctionExists(_auctionId) {\r\n        Auction storage auction = auctions[_auctionId];\r\n        Offer storage bestOffer = offers[auction.bestOfferId];\r\n        require(block.timestamp < auction.end, 'Auction has expired');\r\n        require(msg.value >= auction.min && msg.value > bestOffer.price, 'msg.value must be superior to min and bestOffer');\r\n        auction.bestOfferId = nextOfferId;\r\n        auction.offerIds.push(nextOfferId);\r\n        offers[nextOfferId] = Offer(nextOfferId, _auctionId, payable(msg.sender), msg.value);\r\n        userOffers[msg.sender].push(nextOfferId);\r\n        nextOfferId++;\r\n    }\r\n    \r\n    function trade(uint _auctionId) external auctionExists(_auctionId) {\r\n        Auction storage auction = auctions[_auctionId];\r\n        Offer storage bestOffer = offers[auction.bestOfferId];\r\n        require(block.timestamp > auction.end, 'Auction is still active');\r\n        for(uint i = 0; i < auction.offerIds.length; i++) {\r\n            uint offerId = auction.offerIds[i];\r\n            if(offerId != auction.bestOfferId) {\r\n                Offer storage offer = offers[offerId];\r\n                offer.buyer.transfer(offer.price);\r\n            } \r\n        }\r\n        auction.seller.transfer(bestOffer.price);\r\n    }\r\n    \r\n    function getAuctions() view external returns(Auction[] memory) {\r\n        Auction[] memory _auctions = new Auction[](nextAuctionId - 1);\r\n        for(uint i = 1; i < nextAuctionId  + 1; i++) {\r\n            _auctions[i-1] = auctions[i];  \r\n        }\r\n        return _auctions;\r\n    }\r\n    \r\n    function getUserAuctions(address _user) view external returns(Auction[] memory) {\r\n        uint[] storage userAuctionIds = userAuctions[_user];\r\n        Auction[] memory _auctions = new Auction[](userAuctionIds.length);\r\n        for(uint i = 0; i < userAuctionIds.length; i++) {\r\n            uint auctionId = userAuctionIds[i];\r\n            _auctions[i] = auctions[auctionId];\r\n        }\r\n        return _auctions;\r\n    }\r\n    \r\n    function getUserOffers(address _user) view external returns(Offer[] memory) {\r\n        uint[] storage userOfferIds = userOffers[_user];\r\n        Offer[] memory _offers = new Offer[](userOfferIds.length);\r\n        for(uint i = 0; i < userOfferIds.length; i++) {\r\n            uint offerId = userOfferIds[i];\r\n            _offers[i] = offers[offerId];\r\n        }\r\n        return _offers;\r\n    }\r\n    \r\n    modifier auctionExists(uint _auctionId) {\r\n        require(_auctionId > 0 && _auctionId < nextAuctionId, 'Auction does not exist');\r\n        _;\r\n    }\r\n}",
  "sourcePath": "E:/ebay/contracts/Ebay.sol",
  "compiler": {
    "name": "solc",
    "version": "0.8.5+commit.a4f2e591.Emscripten.clang"
  },
  "schemaVersion": "3.3.4",
  "updatedAt": "2021-08-08T12:48:31.575Z",
  "networkType": "ethereum",
  "devdoc": {
    "kind": "dev",
    "methods": {},
    "version": 1
  },
  "userdoc": {
    "kind": "user",
    "methods": {},
    "version": 1
  }
}