{
  "contractName": "Market",
  "abi": [
    {
      "inputs": [],
      "stateMutability": "nonpayable",
      "type": "constructor"
    },
    {
      "inputs": [
        {
          "internalType": "address",
          "name": "",
          "type": "address"
        }
      ],
      "name": "availableBalances",
      "outputs": [
        {
          "internalType": "uint256",
          "name": "",
          "type": "uint256"
        }
      ],
      "stateMutability": "view",
      "type": "function"
    },
    {
      "inputs": [
        {
          "internalType": "address",
          "name": "",
          "type": "address"
        }
      ],
      "name": "balances",
      "outputs": [
        {
          "internalType": "uint256",
          "name": "",
          "type": "uint256"
        }
      ],
      "stateMutability": "view",
      "type": "function"
    },
    {
      "inputs": [
        {
          "internalType": "address",
          "name": "",
          "type": "address"
        }
      ],
      "name": "members",
      "outputs": [
        {
          "internalType": "bool",
          "name": "",
          "type": "bool"
        }
      ],
      "stateMutability": "view",
      "type": "function"
    },
    {
      "inputs": [
        {
          "internalType": "uint256",
          "name": "",
          "type": "uint256"
        }
      ],
      "name": "offers",
      "outputs": [
        {
          "internalType": "uint256",
          "name": "id",
          "type": "uint256"
        },
        {
          "internalType": "address payable",
          "name": "seller",
          "type": "address"
        },
        {
          "internalType": "string",
          "name": "description",
          "type": "string"
        },
        {
          "internalType": "uint256",
          "name": "price",
          "type": "uint256"
        },
        {
          "internalType": "enum Market.Status",
          "name": "status",
          "type": "uint8"
        }
      ],
      "stateMutability": "view",
      "type": "function"
    },
    {
      "inputs": [
        {
          "internalType": "uint256",
          "name": "",
          "type": "uint256"
        }
      ],
      "name": "trades",
      "outputs": [
        {
          "internalType": "uint256",
          "name": "id",
          "type": "uint256"
        },
        {
          "internalType": "uint256",
          "name": "offerId",
          "type": "uint256"
        },
        {
          "internalType": "address payable",
          "name": "buyer",
          "type": "address"
        },
        {
          "internalType": "address payable",
          "name": "seller",
          "type": "address"
        },
        {
          "internalType": "uint256",
          "name": "price",
          "type": "uint256"
        },
        {
          "internalType": "enum Market.Status",
          "name": "status",
          "type": "uint8"
        }
      ],
      "stateMutability": "view",
      "type": "function"
    },
    {
      "stateMutability": "payable",
      "type": "receive"
    },
    {
      "inputs": [
        {
          "internalType": "string",
          "name": "description",
          "type": "string"
        },
        {
          "internalType": "uint256",
          "name": "price",
          "type": "uint256"
        }
      ],
      "name": "sell",
      "outputs": [],
      "stateMutability": "nonpayable",
      "type": "function"
    },
    {
      "inputs": [
        {
          "internalType": "uint256",
          "name": "offerId",
          "type": "uint256"
        }
      ],
      "name": "buy",
      "outputs": [],
      "stateMutability": "nonpayable",
      "type": "function"
    },
    {
      "inputs": [],
      "name": "deposit",
      "outputs": [],
      "stateMutability": "payable",
      "type": "function"
    },
    {
      "inputs": [
        {
          "internalType": "uint256",
          "name": "txId",
          "type": "uint256"
        }
      ],
      "name": "settle",
      "outputs": [],
      "stateMutability": "nonpayable",
      "type": "function"
    },
    {
      "inputs": [
        {
          "internalType": "address",
          "name": "member",
          "type": "address"
        }
      ],
      "name": "register",
      "outputs": [],
      "stateMutability": "nonpayable",
      "type": "function"
    },
    {
      "inputs": [
        {
          "internalType": "address",
          "name": "member",
          "type": "address"
        }
      ],
      "name": "unregister",
      "outputs": [],
      "stateMutability": "nonpayable",
      "type": "function"
    }
  ],
  "bytecode": "0x60806040526001600655600160075534801561001a57600080fd5b5033600560006101000a81548173ffffffffffffffffffffffffffffffffffffffff021916908373ffffffffffffffffffffffffffffffffffffffff1602179055506121988061006b6000396000f3fe6080604052600436106100a05760003560e01c80638a72ea6a116100645780638a72ea6a146101ba5780638df82800146101fb5780639f65632114610224578063d0e30db01461024d578063d96a094a14610257578063dc3774b314610280576100a7565b806308ae4b0c146100ac5780631e6c598e146100e957806327e235e31461012b5780632ec2c246146101685780634420e48614610191576100a7565b366100a757005b600080fd5b3480156100b857600080fd5b506100d360048036038101906100ce9190611884565b6102bd565b6040516100e09190611aee565b60405180910390f35b3480156100f557600080fd5b50610110600480360381019061010b9190611911565b6102dd565b60405161012296959493929190611c9e565b60405180910390f35b34801561013757600080fd5b50610152600480360381019061014d9190611884565b610366565b60405161015f9190611c29565b60405180910390f35b34801561017457600080fd5b5061018f600480360381019061018a9190611884565b61037e565b005b34801561019d57600080fd5b506101b860048036038101906101b39190611884565b6105f0565b005b3480156101c657600080fd5b506101e160048036038101906101dc9190611911565b6108c2565b6040516101f2959493929190611c44565b60405180910390f35b34801561020757600080fd5b50610222600480360381019061021d9190611911565b6109ad565b005b34801561023057600080fd5b5061024b600480360381019061024691906118b1565b610bf5565b005b610255610ee2565b005b34801561026357600080fd5b5061027e60048036038101906102799190611911565b6110c7565b005b34801561028c57600080fd5b506102a760048036038101906102a29190611884565b61156a565b6040516102b49190611c29565b60405180910390f35b60046020528060005260406000206000915054906101000a900460ff1681565b60006020528060005260406000206000915090508060000154908060010154908060020160009054906101000a900473ffffffffffffffffffffffffffffffffffffffff16908060030160009054906101000a900473ffffffffffffffffffffffffffffffffffffffff16908060040154908060050160009054906101000a900460ff16905086565b60026020528060005260406000206000915090505481565b806001801561041f5760011515600460008473ffffffffffffffffffffffffffffffffffffffff1673ffffffffffffffffffffffffffffffffffffffff16815260200190815260200160002060009054906101000a900460ff1615151461041a576040517f08c379a000000000000000000000000000000000000000000000000000000000815260040161041190611ba9565b60405180910390fd5b6104b3565b60001515600460008473ffffffffffffffffffffffffffffffffffffffff1673ffffffffffffffffffffffffffffffffffffffff16815260200190815260200160002060009054906101000a900460ff161515146104b2576040517f08c379a00000000000000000000000000000000000000000000000000000000081526004016104a990611b09565b60405180910390fd5b5b600560009054906101000a900473ffffffffffffffffffffffffffffffffffffffff1673ffffffffffffffffffffffffffffffffffffffff163373ffffffffffffffffffffffffffffffffffffffff1614610543576040517f08c379a000000000000000000000000000000000000000000000000000000000815260040161053a90611b49565b60405180910390fd5b6000600260008573ffffffffffffffffffffffffffffffffffffffff1673ffffffffffffffffffffffffffffffffffffffff1681526020019081526020016000205490506000600460008673ffffffffffffffffffffffffffffffffffffffff1673ffffffffffffffffffffffffffffffffffffffff16815260200190815260200160002060006101000a81548160ff0219169083151502179055506105ea843083611582565b50505050565b80600080156106915760011515600460008473ffffffffffffffffffffffffffffffffffffffff1673ffffffffffffffffffffffffffffffffffffffff16815260200190815260200160002060009054906101000a900460ff1615151461068c576040517f08c379a000000000000000000000000000000000000000000000000000000000815260040161068390611ba9565b60405180910390fd5b610725565b60001515600460008473ffffffffffffffffffffffffffffffffffffffff1673ffffffffffffffffffffffffffffffffffffffff16815260200190815260200160002060009054906101000a900460ff16151514610724576040517f08c379a000000000000000000000000000000000000000000000000000000000815260040161071b90611b09565b60405180910390fd5b5b600560009054906101000a900473ffffffffffffffffffffffffffffffffffffffff1673ffffffffffffffffffffffffffffffffffffffff163373ffffffffffffffffffffffffffffffffffffffff16146107b5576040517f08c379a00000000000000000000000000000000000000000000000000000000081526004016107ac90611b49565b60405180910390fd5b6001600460008573ffffffffffffffffffffffffffffffffffffffff1673ffffffffffffffffffffffffffffffffffffffff16815260200190815260200160002060006101000a81548160ff0219169083151502179055506101f4600260008573ffffffffffffffffffffffffffffffffffffffff1673ffffffffffffffffffffffffffffffffffffffff168152602001908152602001600020600082825461085e9190611d1b565b925050819055506101f4600360008573ffffffffffffffffffffffffffffffffffffffff1673ffffffffffffffffffffffffffffffffffffffff16815260200190815260200160002060008282546108b69190611d1b565b92505081905550505050565b60016020528060005260406000206000915090508060000154908060010160009054906101000a900473ffffffffffffffffffffffffffffffffffffffff169080600201805461091190611e57565b80601f016020809104026020016040519081016040528092919081815260200182805461093d90611e57565b801561098a5780601f1061095f5761010080835404028352916020019161098a565b820191906000526020600020905b81548152906001019060200180831161096d57829003601f168201915b5050505050908060030154908060040160009054906101000a900460ff16905085565b600560009054906101000a900473ffffffffffffffffffffffffffffffffffffffff1673ffffffffffffffffffffffffffffffffffffffff163373ffffffffffffffffffffffffffffffffffffffff1614610a3d576040517f08c379a0000000000000000000000000000000000000000000000000000000008152600401610a3490611b49565b60405180910390fd5b60008060008381526020019081526020016000209050600081600001541415610a9b576040517f08c379a0000000000000000000000000000000000000000000000000000000008152600401610a9290611be9565b60405180910390fd5b60006001811115610aaf57610aae611f01565b5b8160050160009054906101000a900460ff166001811115610ad357610ad2611f01565b5b14610b13576040517f08c379a0000000000000000000000000000000000000000000000000000000008152600401610b0a90611b89565b60405180910390fd5b60018160050160006101000a81548160ff02191690836001811115610b3b57610b3a611f01565b5b02179055508060040154600360003373ffffffffffffffffffffffffffffffffffffffff1673ffffffffffffffffffffffffffffffffffffffff1681526020019081526020016000206000828254610b939190611d1b565b92505081905550610bf18160020160009054906101000a900473ffffffffffffffffffffffffffffffffffffffff168260030160009054906101000a900473ffffffffffffffffffffffffffffffffffffffff168360040154611582565b5050565b3360018015610c965760011515600460008473ffffffffffffffffffffffffffffffffffffffff1673ffffffffffffffffffffffffffffffffffffffff16815260200190815260200160002060009054906101000a900460ff16151514610c91576040517f08c379a0000000000000000000000000000000000000000000000000000000008152600401610c8890611ba9565b60405180910390fd5b610d2a565b60001515600460008473ffffffffffffffffffffffffffffffffffffffff1673ffffffffffffffffffffffffffffffffffffffff16815260200190815260200160002060009054906101000a900460ff16151514610d29576040517f08c379a0000000000000000000000000000000000000000000000000000000008152600401610d2090611b09565b60405180910390fd5b5b60008311610d6d576040517f08c379a0000000000000000000000000000000000000000000000000000000008152600401610d6490611c09565b60405180910390fd5b600060066000815480929190610d8290611e89565b9190505590506040518060a001604052808281526020013373ffffffffffffffffffffffffffffffffffffffff16815260200187878080601f016020809104026020016040519081016040528093929190818152602001838380828437600081840152601f19601f82011690508083019250505050505050815260200185815260200160006001811115610e1957610e18611f01565b5b815250600160008381526020019081526020016000206000820151816000015560208201518160010160006101000a81548173ffffffffffffffffffffffffffffffffffffffff021916908373ffffffffffffffffffffffffffffffffffffffff1602179055506040820151816002019080519060200190610e9c929190611761565b506060820151816003015560808201518160040160006101000a81548160ff02191690836001811115610ed257610ed1611f01565b5b0217905550905050505050505050565b3360018015610f835760011515600460008473ffffffffffffffffffffffffffffffffffffffff1673ffffffffffffffffffffffffffffffffffffffff16815260200190815260200160002060009054906101000a900460ff16151514610f7e576040517f08c379a0000000000000000000000000000000000000000000000000000000008152600401610f7590611ba9565b60405180910390fd5b611017565b60001515600460008473ffffffffffffffffffffffffffffffffffffffff1673ffffffffffffffffffffffffffffffffffffffff16815260200190815260200160002060009054906101000a900460ff16151514611016576040517f08c379a000000000000000000000000000000000000000000000000000000000815260040161100d90611b09565b60405180910390fd5b5b34600260003373ffffffffffffffffffffffffffffffffffffffff1673ffffffffffffffffffffffffffffffffffffffff16815260200190815260200160002060008282546110669190611d1b565b9250508190555034600360003373ffffffffffffffffffffffffffffffffffffffff1673ffffffffffffffffffffffffffffffffffffffff16815260200190815260200160002060008282546110bc9190611d1b565b925050819055505050565b33600180156111685760011515600460008473ffffffffffffffffffffffffffffffffffffffff1673ffffffffffffffffffffffffffffffffffffffff16815260200190815260200160002060009054906101000a900460ff16151514611163576040517f08c379a000000000000000000000000000000000000000000000000000000000815260040161115a90611ba9565b60405180910390fd5b6111fc565b60001515600460008473ffffffffffffffffffffffffffffffffffffffff1673ffffffffffffffffffffffffffffffffffffffff16815260200190815260200160002060009054906101000a900460ff161515146111fb576040517f08c379a00000000000000000000000000000000000000000000000000000000081526004016111f290611b09565b60405180910390fd5b5b6000600160008581526020019081526020016000209050600081600001541161125a576040517f08c379a000000000000000000000000000000000000000000000000000000000815260040161125190611b69565b60405180910390fd5b6000600181111561126e5761126d611f01565b5b8160040160009054906101000a900460ff16600181111561129257611291611f01565b5b146112d2576040517f08c379a00000000000000000000000000000000000000000000000000000000081526004016112c990611b29565b60405180910390fd5b8060030154600360003373ffffffffffffffffffffffffffffffffffffffff1673ffffffffffffffffffffffffffffffffffffffff16815260200190815260200160002054101561132257600080fd5b8060030154600360003373ffffffffffffffffffffffffffffffffffffffff1673ffffffffffffffffffffffffffffffffffffffff16815260200190815260200160002060008282546113759190611d71565b9250508190555060018160040160006101000a81548160ff021916908360018111156113a4576113a3611f01565b5b02179055506000600760008154809291906113be90611e89565b9190505590506040518060c00160405280828152602001836000015481526020013373ffffffffffffffffffffffffffffffffffffffff1681526020018360010160009054906101000a900473ffffffffffffffffffffffffffffffffffffffff1673ffffffffffffffffffffffffffffffffffffffff168152602001836003015481526020016000600181111561145957611458611f01565b5b8152506000806007600081548092919061147290611e89565b919050558152602001908152602001600020600082015181600001556020820151816001015560408201518160020160006101000a81548173ffffffffffffffffffffffffffffffffffffffff021916908373ffffffffffffffffffffffffffffffffffffffff16021790555060608201518160030160006101000a81548173ffffffffffffffffffffffffffffffffffffffff021916908373ffffffffffffffffffffffffffffffffffffffff1602179055506080820151816004015560a08201518160050160006101000a81548160ff0219169083600181111561155b5761155a611f01565b5b02179055509050505050505050565b60036020528060005260406000206000915090505481565b80600260008573ffffffffffffffffffffffffffffffffffffffff1673ffffffffffffffffffffffffffffffffffffffff168152602001908152602001600020541015611604576040517f08c379a00000000000000000000000000000000000000000000000000000000081526004016115fb90611bc9565b60405180910390fd5b80600260008573ffffffffffffffffffffffffffffffffffffffff1673ffffffffffffffffffffffffffffffffffffffff16815260200190815260200160002060008282546116539190611d71565b9250508190555080600360008573ffffffffffffffffffffffffffffffffffffffff1673ffffffffffffffffffffffffffffffffffffffff16815260200190815260200160002060008282546116a99190611d71565b9250508190555080600260008473ffffffffffffffffffffffffffffffffffffffff1673ffffffffffffffffffffffffffffffffffffffff16815260200190815260200160002060008282546116ff9190611d1b565b9250508190555080600360008473ffffffffffffffffffffffffffffffffffffffff1673ffffffffffffffffffffffffffffffffffffffff16815260200190815260200160002060008282546117559190611d1b565b92505081905550505050565b82805461176d90611e57565b90600052602060002090601f01602090048101928261178f57600085556117d6565b82601f106117a857805160ff19168380011785556117d6565b828001600101855582156117d6579182015b828111156117d55782518255916020019190600101906117ba565b5b5090506117e391906117e7565b5090565b5b808211156118005760008160009055506001016117e8565b5090565b60008135905061181381612134565b92915050565b60008083601f84011261182f5761182e611f64565b5b8235905067ffffffffffffffff81111561184c5761184b611f5f565b5b60208301915083600182028301111561186857611867611f69565b5b9250929050565b60008135905061187e8161214b565b92915050565b60006020828403121561189a57611899611f73565b5b60006118a884828501611804565b91505092915050565b6000806000604084860312156118ca576118c9611f73565b5b600084013567ffffffffffffffff8111156118e8576118e7611f6e565b5b6118f486828701611819565b935093505060206119078682870161186f565b9150509250925092565b60006020828403121561192757611926611f73565b5b60006119358482850161186f565b91505092915050565b61194781611db7565b82525050565b61195681611dc9565b82525050565b61196581611e12565b82525050565b600061197682611cff565b6119808185611d0a565b9350611990818560208601611e24565b61199981611f78565b840191505092915050565b60006119b1601683611d0a565b91506119bc82611f89565b602082019050919050565b60006119d4601583611d0a565b91506119df82611fb2565b602082019050919050565b60006119f7600a83611d0a565b9150611a0282611fdb565b602082019050919050565b6000611a1a601083611d0a565b9150611a2582612004565b602082019050919050565b6000611a3d601e83611d0a565b9150611a488261202d565b602082019050919050565b6000611a60601283611d0a565b9150611a6b82612056565b602082019050919050565b6000611a83602983611d0a565b9150611a8e8261207f565b604082019050919050565b6000611aa6601083611d0a565b9150611ab1826120ce565b602082019050919050565b6000611ac9601683611d0a565b9150611ad4826120f7565b602082019050919050565b611ae881611e08565b82525050565b6000602082019050611b03600083018461194d565b92915050565b60006020820190508181036000830152611b22816119a4565b9050919050565b60006020820190508181036000830152611b42816119c7565b9050919050565b60006020820190508181036000830152611b62816119ea565b9050919050565b60006020820190508181036000830152611b8281611a0d565b9050919050565b60006020820190508181036000830152611ba281611a30565b9050919050565b60006020820190508181036000830152611bc281611a53565b9050919050565b60006020820190508181036000830152611be281611a76565b9050919050565b60006020820190508181036000830152611c0281611a99565b9050919050565b60006020820190508181036000830152611c2281611abc565b9050919050565b6000602082019050611c3e6000830184611adf565b92915050565b600060a082019050611c596000830188611adf565b611c66602083018761193e565b8181036040830152611c78818661196b565b9050611c876060830185611adf565b611c94608083018461195c565b9695505050505050565b600060c082019050611cb36000830189611adf565b611cc06020830188611adf565b611ccd604083018761193e565b611cda606083018661193e565b611ce76080830185611adf565b611cf460a083018461195c565b979650505050505050565b600081519050919050565b600082825260208201905092915050565b6000611d2682611e08565b9150611d3183611e08565b9250827fffffffffffffffffffffffffffffffffffffffffffffffffffffffffffffffff03821115611d6657611d65611ed2565b5b828201905092915050565b6000611d7c82611e08565b9150611d8783611e08565b925082821015611d9a57611d99611ed2565b5b828203905092915050565b6000611db082611de8565b9050919050565b6000611dc282611de8565b9050919050565b60008115159050919050565b6000819050611de382612120565b919050565b600073ffffffffffffffffffffffffffffffffffffffff82169050919050565b6000819050919050565b6000611e1d82611dd5565b9050919050565b60005b83811015611e42578082015181840152602081019050611e27565b83811115611e51576000848401525b50505050565b60006002820490506001821680611e6f57607f821691505b60208210811415611e8357611e82611f30565b5b50919050565b6000611e9482611e08565b91507fffffffffffffffffffffffffffffffffffffffffffffffffffffffffffffffff821415611ec757611ec6611ed2565b5b600182019050919050565b7f4e487b7100000000000000000000000000000000000000000000000000000000600052601160045260246000fd5b7f4e487b7100000000000000000000000000000000000000000000000000000000600052602160045260246000fd5b7f4e487b7100000000000000000000000000000000000000000000000000000000600052602260045260246000fd5b600080fd5b600080fd5b600080fd5b600080fd5b600080fd5b6000601f19601f8301169050919050565b7f6d757374204e4f54206265207265676973746572656400000000000000000000600082015250565b7f6f66666572206d7573742062652070656e64696e670000000000000000000000600082015250565b7f6f6e6c792061646d696e00000000000000000000000000000000000000000000600082015250565b7f6f66666572206d75737420657869737400000000000000000000000000000000600082015250565b7f7472616465206d75737420626520696e2050454e44494e472073746174650000600082015250565b7f6d75737420626520726567697374657265640000000000000000000000000000600082015250565b7f63616e6e6f74207472616e73666572206d6f7265207468616e2063757272656e60008201527f742062616c616e63650000000000000000000000000000000000000000000000602082015250565b7f7472616465206d75737420657869737400000000000000000000000000000000600082015250565b7f63616e6e6f742073656c6c2066726565206974656d7300000000000000000000600082015250565b6002811061213157612130611f01565b5b50565b61213d81611da5565b811461214857600080fd5b50565b61215481611e08565b811461215f57600080fd5b5056fea2646970667358221220c774cb069aeb00180cdc0f383830badb211a7fef62cdc364e0f81fbd127e631964736f6c63430008050033",
  "immutableReferences": {},
  "source": "pragma solidity ^0.8.5;\r\n\r\ncontract Market {\r\n    enum Status { //used both for Trade and Offer. For Trade 'DONE' means settled, and for\r\n        PENDING,  // Offer it means the offer was taken already.\r\n        DONE\r\n    }\r\n    struct Trade {\r\n        uint id;\r\n        uint offerId;\r\n        address payable buyer;\r\n        address payable seller;\r\n        uint price;\r\n        Status status;\r\n    }\r\n    struct Offer {\r\n        uint id;\r\n        address payable seller;\r\n        string description;\r\n        uint price;\r\n        Status status;\r\n    }\r\n    mapping(uint => Trade) public trades;\r\n    mapping(uint => Offer) public offers;\r\n    mapping(address => uint) public balances;\r\n    mapping(address => uint) public availableBalances; //take into consideration pending trades\r\n    mapping(address => bool) public members;\r\n    address payable admin;\r\n    \r\n    uint lastOfferId = 1;\r\n    uint lastTradeId = 1;\r\n    \r\n    constructor() {\r\n        admin = payable(msg.sender);\r\n    }\r\n    \r\n    /*\r\n     * Members functions\r\n     */\r\n    \r\n    // called by seller\r\n    function sell(string calldata description, uint price) \r\n        external \r\n        onlyMember(msg.sender, true) {\r\n        require(price > 0, 'cannot sell free items');\r\n        uint offerId = lastOfferId++;\r\n        offers[offerId] = Offer(\r\n            offerId, \r\n           payable(msg.sender),\r\n            description, \r\n            price, \r\n            Status.PENDING\r\n        );\r\n    }\r\n    \r\n    //called by buyer\r\n    function buy(uint offerId)\r\n        external \r\n        onlyMember(msg.sender, true) {\r\n        Offer storage offer = offers[offerId];\r\n        require(offer.id > 0, 'offer must exist');\r\n        require(offer.status == Status.PENDING, 'offer must be pending');\r\n        require(availableBalances[payable(msg.sender)] >= offer.price);\r\n        availableBalances[payable(msg.sender)] -= offer.price;\r\n        offer.status = Status.DONE;\r\n        uint tradeId = lastTradeId++;\r\n        trades[lastTradeId++] = Trade(\r\n            tradeId, \r\n            offer.id, \r\n           payable(msg.sender),\r\n            offer.seller, \r\n            offer.price,\r\n            Status.PENDING\r\n        );\r\n    }\r\n        \r\n    function deposit() \r\n        external \r\n        payable \r\n        onlyMember(msg.sender, true) {\r\n        balances[msg.sender] += msg.value;\r\n        availableBalances[msg.sender] += msg.value;\r\n    }\r\n    \r\n    /*\r\n     * Admin functions\r\n     */\r\n    \r\n    function settle(uint txId) \r\n        external \r\n        onlyAdmin() {\r\n        Trade storage trade = trades[txId];\r\n        require(trade.id != 0, 'trade must exist');\r\n        require(trade.status == Status.PENDING, 'trade must be in PENDING state');\r\n        trade.status = Status.DONE;\r\n        availableBalances[msg.sender] += trade.price;\r\n        _transfer(trade.buyer, trade.seller, trade.price);\r\n    }\r\n    \r\n    function register(address member) \r\n        external \r\n        onlyMember(member, false)\r\n        onlyAdmin() {\r\n        members[member] = true;\r\n        balances[member] += 500;\r\n        availableBalances[member] += 500;\r\n    }\r\n    \r\n    function unregister(address member) \r\n        external \r\n        onlyMember(member, true)\r\n        onlyAdmin() {\r\n        uint memberBalance = balances[member];\r\n        members[member] = false;\r\n        _transfer(member, address(this), memberBalance);\r\n    }\r\n    \r\n    function _transfer(address from, address to, uint amount) internal {\r\n        require(balances[from] >= amount, 'cannot transfer more than current balance');\r\n        balances[from] -= amount;\r\n        availableBalances[from] -= amount;\r\n        balances[to] += amount;\r\n        availableBalances[to] += amount;\r\n    }\r\n    \r\n    //Can send ether to smart contract\r\n     receive() external payable {}\r\n    \r\n    modifier onlyMember(address member, bool registered) {\r\n        if(registered) {\r\n            require(members[member] == true, 'must be registered');\r\n        } else {\r\n            require(members[member] == false, 'must NOT be registered');\r\n        }\r\n        _;\r\n    }\r\n    \r\n    modifier onlyAdmin() {\r\n        require(msg.sender == admin, 'only admin');\r\n        _;\r\n    }\r\n}",
  "sourcePath": "E:/ebay/contracts/Ebay-alternative.sol",
  "compiler": {
    "name": "solc",
    "version": "0.8.5+commit.a4f2e591.Emscripten.clang"
  },
  "schemaVersion": "3.3.4",
  "updatedAt": "2021-08-02T17:56:59.074Z",
  "devdoc": {
    "kind": "dev",
    "methods": {},
    "version": 1
  },
  "userdoc": {
    "kind": "user",
    "methods": {},
    "version": 1
  }
}